{
  "contractName": "MarketApp",
  "abi": [
    {
      "constant": true,
      "inputs": [
        {
          "name": "",
          "type": "address"
        },
        {
          "name": "",
          "type": "uint256"
        }
      ],
      "name": "sellItems",
      "outputs": [
        {
          "name": "",
          "type": "uint256"
        }
      ],
      "payable": false,
      "stateMutability": "view",
      "type": "function"
    },
    {
      "constant": true,
      "inputs": [
        {
          "name": "",
          "type": "uint256"
        }
      ],
      "name": "users",
      "outputs": [
        {
          "name": "",
          "type": "address"
        }
      ],
      "payable": false,
      "stateMutability": "view",
      "type": "function"
    },
    {
      "constant": true,
      "inputs": [],
      "name": "numItems",
      "outputs": [
        {
          "name": "",
          "type": "uint256"
        }
      ],
      "payable": false,
      "stateMutability": "view",
      "type": "function"
    },
    {
      "constant": true,
      "inputs": [
        {
          "name": "",
          "type": "address"
        },
        {
          "name": "",
          "type": "uint256"
        }
      ],
      "name": "buyItems",
      "outputs": [
        {
          "name": "",
          "type": "uint256"
        }
      ],
      "payable": false,
      "stateMutability": "view",
      "type": "function"
    },
    {
      "constant": true,
      "inputs": [],
      "name": "stopped",
      "outputs": [
        {
          "name": "",
          "type": "bool"
        }
      ],
      "payable": false,
      "stateMutability": "view",
      "type": "function"
    },
    {
      "constant": true,
      "inputs": [
        {
          "name": "",
          "type": "uint256"
        }
      ],
      "name": "images",
      "outputs": [
        {
          "name": "googleDocID",
          "type": "string"
        },
        {
          "name": "ipfsHash",
          "type": "string"
        }
      ],
      "payable": false,
      "stateMutability": "view",
      "type": "function"
    },
    {
      "constant": true,
      "inputs": [
        {
          "name": "",
          "type": "uint256"
        }
      ],
      "name": "items",
      "outputs": [
        {
          "name": "sellerAddr",
          "type": "address"
        },
        {
          "name": "buyerAddr",
          "type": "address"
        },
        {
          "name": "seller",
          "type": "string"
        },
        {
          "name": "name",
          "type": "string"
        },
        {
          "name": "description",
          "type": "string"
        },
        {
          "name": "price",
          "type": "uint256"
        },
        {
          "name": "payment",
          "type": "bool"
        },
        {
          "name": "shipment",
          "type": "bool"
        },
        {
          "name": "receivement",
          "type": "bool"
        },
        {
          "name": "sellerReputate",
          "type": "bool"
        },
        {
          "name": "buyerReputate",
          "type": "bool"
        },
        {
          "name": "stopSell",
          "type": "bool"
        }
      ],
      "payable": false,
      "stateMutability": "view",
      "type": "function"
    },
    {
      "inputs": [],
      "payable": false,
      "stateMutability": "nonpayable",
      "type": "constructor"
    },
    {
      "constant": false,
      "inputs": [
        {
          "name": "_name",
          "type": "string"
        },
        {
          "name": "_email",
          "type": "string"
        }
      ],
      "name": "registerAccount",
      "outputs": [
        {
          "name": "",
          "type": "bool"
        }
      ],
      "payable": false,
      "stateMutability": "nonpayable",
      "type": "function"
    },
    {
      "constant": true,
      "inputs": [
        {
          "name": "user",
          "type": "address"
        }
      ],
      "name": "viewAccount",
      "outputs": [
        {
          "name": "",
          "type": "string"
        },
        {
          "name": "",
          "type": "string"
        }
      ],
      "payable": false,
      "stateMutability": "view",
      "type": "function"
    },
    {
      "constant": true,
      "inputs": [
        {
          "name": "user",
          "type": "address"
        }
      ],
      "name": "isUserExist",
      "outputs": [
        {
          "name": "",
          "type": "bool"
        }
      ],
      "payable": false,
      "stateMutability": "view",
      "type": "function"
    },
    {
      "constant": false,
      "inputs": [
        {
          "name": "_name",
          "type": "string"
        },
        {
          "name": "_description",
          "type": "string"
        },
        {
          "name": "_price",
          "type": "uint256"
        },
        {
          "name": "_googleDocID",
          "type": "string"
        },
        {
          "name": "_ipfsHash",
          "type": "string"
        }
      ],
      "name": "sell",
      "outputs": [],
      "payable": false,
      "stateMutability": "nonpayable",
      "type": "function"
    }
  ],
  "bytecode": "0x608060405234801561001057600080fd5b50336000806101000a81548173ffffffffffffffffffffffffffffffffffffffff021916908373ffffffffffffffffffffffffffffffffffffffff16021790555060006001819055506000600260006101000a81548160ff021916908315150217905550611729806100836000396000f3fe608060405234801561001057600080fd5b50600436106100c5576000357c01000000000000000000000000000000000000000000000000000000009004806363fa870b1161008e57806363fa870b1461049e5780636b55f4a51461050057806375f12b2114610629578063848564821461064b578063bfb231d21461075e578063ddc7b6a71461098c576100c5565b806263e670146100ca5780630255fa1e1461012c57806305af880e14610188578063365b98b2146104125780635bfadae414610480575b600080fd5b610116600480360360408110156100e057600080fd5b81019080803573ffffffffffffffffffffffffffffffffffffffff16906020019092919080359060200190929190505050610af6565b6040518082815260200191505060405180910390f35b61016e6004803603602081101561014257600080fd5b81019080803573ffffffffffffffffffffffffffffffffffffffff169060200190929190505050610b26565b604051808215151515815260200191505060405180910390f35b610410600480360360a081101561019e57600080fd5b81019080803590602001906401000000008111156101bb57600080fd5b8201836020820111156101cd57600080fd5b803590602001918460018302840111640100000000831117156101ef57600080fd5b91908080601f016020809104026020016040519081016040528093929190818152602001838380828437600081840152601f19601f8201169050808301925050505050505091929192908035906020019064010000000081111561025257600080fd5b82018360208201111561026457600080fd5b8035906020019184600183028401116401000000008311171561028657600080fd5b91908080601f016020809104026020016040519081016040528093929190818152602001838380828437600081840152601f19601f82011690508083019250505050505050919291929080359060200190929190803590602001906401000000008111156102f357600080fd5b82018360208201111561030557600080fd5b8035906020019184600183028401116401000000008311171561032757600080fd5b91908080601f016020809104026020016040519081016040528093929190818152602001838380828437600081840152601f19601f8201169050808301925050505050505091929192908035906020019064010000000081111561038a57600080fd5b82018360208201111561039c57600080fd5b803590602001918460018302840111640100000000831117156103be57600080fd5b91908080601f016020809104026020016040519081016040528093929190818152602001838380828437600081840152601f19601f820116905080830192505050505050509192919290505050610bca565b005b61043e6004803603602081101561042857600080fd5b8101908080359060200190929190505050610e42565b604051808273ffffffffffffffffffffffffffffffffffffffff1673ffffffffffffffffffffffffffffffffffffffff16815260200191505060405180910390f35b610488610e80565b6040518082815260200191505060405180910390f35b6104ea600480360360408110156104b457600080fd5b81019080803573ffffffffffffffffffffffffffffffffffffffff16906020019092919080359060200190929190505050610e86565b6040518082815260200191505060405180910390f35b6105426004803603602081101561051657600080fd5b81019080803573ffffffffffffffffffffffffffffffffffffffff169060200190929190505050610eb6565b604051808060200180602001838103835285818151815260200191508051906020019080838360005b8381101561058657808201518184015260208101905061056b565b50505050905090810190601f1680156105b35780820380516001836020036101000a031916815260200191505b50838103825284818151815260200191508051906020019080838360005b838110156105ec5780820151818401526020810190506105d1565b50505050905090810190601f1680156106195780820380516001836020036101000a031916815260200191505b5094505050505060405180910390f35b610631611084565b604051808215151515815260200191505060405180910390f35b6106776004803603602081101561066157600080fd5b8101908080359060200190929190505050611097565b604051808060200180602001838103835285818151815260200191508051906020019080838360005b838110156106bb5780820151818401526020810190506106a0565b50505050905090810190601f1680156106e85780820380516001836020036101000a031916815260200191505b50838103825284818151815260200191508051906020019080838360005b83811015610721578082015181840152602081019050610706565b50505050905090810190601f16801561074e5780820380516001836020036101000a031916815260200191505b5094505050505060405180910390f35b61078a6004803603602081101561077457600080fd5b81019080803590602001909291905050506111eb565b604051808d73ffffffffffffffffffffffffffffffffffffffff1673ffffffffffffffffffffffffffffffffffffffff1681526020018c73ffffffffffffffffffffffffffffffffffffffff1673ffffffffffffffffffffffffffffffffffffffff1681526020018060200180602001806020018b81526020018a151515158152602001891515151581526020018815151515815260200187151515158152602001861515151581526020018515151515815260200184810384528e818151815260200191508051906020019080838360005b8381101561087857808201518184015260208101905061085d565b50505050905090810190601f1680156108a55780820380516001836020036101000a031916815260200191505b5084810383528d818151815260200191508051906020019080838360005b838110156108de5780820151818401526020810190506108c3565b50505050905090810190601f16801561090b5780820380516001836020036101000a031916815260200191505b5084810382528c818151815260200191508051906020019080838360005b83811015610944578082015181840152602081019050610929565b50505050905090810190601f1680156109715780820380516001836020036101000a031916815260200191505b509f5050505050505050505050505050505060405180910390f35b610adc600480360360408110156109a257600080fd5b81019080803590602001906401000000008111156109bf57600080fd5b8201836020820111156109d157600080fd5b803590602001918460018302840111640100000000831117156109f357600080fd5b91908080601f016020809104026020016040519081016040528093929190818152602001838380828437600081840152601f19601f82011690508083019250505050505050919291929080359060200190640100000000811115610a5657600080fd5b820183602082011115610a6857600080fd5b80359060200191846001830284011164010000000083111715610a8a57600080fd5b91908080601f016020809104026020016040519081016040528093929190818152602001838380828437600081840152601f19601f8201169050808301925050505050505091929192905050506114a1565b604051808215151515815260200191505060405180910390f35b600560205281600052604060002081815481101515610b1157fe5b90600052602060002001600091509150505481565b600080600090505b600380549050811015610bbf578273ffffffffffffffffffffffffffffffffffffffff16600382815481101515610b6157fe5b9060005260206000200160009054906101000a900473ffffffffffffffffffffffffffffffffffffffff1673ffffffffffffffffffffffffffffffffffffffff161415610bb2576001915050610bc5565b8080600101915050610b2e565b50600090505b919050565b3360076000600154815260200190815260200160002060000160006101000a81548173ffffffffffffffffffffffffffffffffffffffff021916908373ffffffffffffffffffffffffffffffffffffffff160217905550600460003373ffffffffffffffffffffffffffffffffffffffff1673ffffffffffffffffffffffffffffffffffffffff1681526020019081526020016000206000016007600060015481526020019081526020016000206002019080546001816001161561010002031660029004610c9a9291906115d1565b50846007600060015481526020019081526020016000206003019080519060200190610cc7929190611658565b50836007600060015481526020019081526020016000206004019080519060200190610cf4929190611658565b508260076000600154815260200190815260200160002060050181905550816008600060015481526020019081526020016000206000019080519060200190610d3e929190611658565b50806008600060015481526020019081526020016000206001019080519060200190610d6b929190611658565b50600460003373ffffffffffffffffffffffffffffffffffffffff1673ffffffffffffffffffffffffffffffffffffffff16815260200190815260200160002060050160008154809291906001019190505550600560003373ffffffffffffffffffffffffffffffffffffffff1673ffffffffffffffffffffffffffffffffffffffff16815260200190815260200160002060015490806001815401808255809150509060018203906000526020600020016000909192909190915055506001600081548092919060010191905055505050505050565b600381815481101515610e5157fe5b906000526020600020016000915054906101000a900473ffffffffffffffffffffffffffffffffffffffff1681565b60015481565b600660205281600052604060002081815481101515610ea157fe5b90600052602060002001600091509150505481565b6060806060600460008573ffffffffffffffffffffffffffffffffffffffff1673ffffffffffffffffffffffffffffffffffffffff1681526020019081526020016000206000018054600181600116156101000203166002900480601f016020809104026020016040519081016040528092919081815260200182805460018160011615610100020316600290048015610f915780601f10610f6657610100808354040283529160200191610f91565b820191906000526020600020905b815481529060010190602001808311610f7457829003601f168201915b505050505090506060600460008673ffffffffffffffffffffffffffffffffffffffff1673ffffffffffffffffffffffffffffffffffffffff1681526020019081526020016000206001018054600181600116156101000203166002900480601f0160208091040260200160405190810160405280929190818152602001828054600181600116156101000203166002900480156110705780601f1061104557610100808354040283529160200191611070565b820191906000526020600020905b81548152906001019060200180831161105357829003601f168201915b505050505090508181935093505050915091565b600260009054906101000a900460ff1681565b6008602052806000526040600020600091509050806000018054600181600116156101000203166002900480601f0160208091040260200160405190810160405280929190818152602001828054600181600116156101000203166002900480156111435780601f1061111857610100808354040283529160200191611143565b820191906000526020600020905b81548152906001019060200180831161112657829003601f168201915b505050505090806001018054600181600116156101000203166002900480601f0160208091040260200160405190810160405280929190818152602001828054600181600116156101000203166002900480156111e15780601f106111b6576101008083540402835291602001916111e1565b820191906000526020600020905b8154815290600101906020018083116111c457829003601f168201915b5050505050905082565b60076020528060005260406000206000915090508060000160009054906101000a900473ffffffffffffffffffffffffffffffffffffffff16908060010160009054906101000a900473ffffffffffffffffffffffffffffffffffffffff1690806002018054600181600116156101000203166002900480601f0160208091040260200160405190810160405280929190818152602001828054600181600116156101000203166002900480156112e35780601f106112b8576101008083540402835291602001916112e3565b820191906000526020600020905b8154815290600101906020018083116112c657829003601f168201915b505050505090806003018054600181600116156101000203166002900480601f0160208091040260200160405190810160405280929190818152602001828054600181600116156101000203166002900480156113815780601f1061135657610100808354040283529160200191611381565b820191906000526020600020905b81548152906001019060200180831161136457829003601f168201915b505050505090806004018054600181600116156101000203166002900480601f01602080910402602001604051908101604052809291908181526020018280546001816001161561010002031660029004801561141f5780601f106113f45761010080835404028352916020019161141f565b820191906000526020600020905b81548152906001019060200180831161140257829003601f168201915b5050505050908060050154908060060160009054906101000a900460ff16908060060160019054906101000a900460ff16908060060160029054906101000a900460ff16908060060160039054906101000a900460ff16908060060160049054906101000a900460ff16908060060160059054906101000a900460ff1690508c565b60006114ac33610b26565b15156115195760033390806001815401808255809150509060018203906000526020600020016000909192909190916101000a81548173ffffffffffffffffffffffffffffffffffffffff021916908373ffffffffffffffffffffffffffffffffffffffff160217905550505b82600460003373ffffffffffffffffffffffffffffffffffffffff1673ffffffffffffffffffffffffffffffffffffffff168152602001908152602001600020600001908051906020019061156f929190611658565b5081600460003373ffffffffffffffffffffffffffffffffffffffff1673ffffffffffffffffffffffffffffffffffffffff16815260200190815260200160002060010190805190602001906115c6929190611658565b506001905092915050565b828054600181600116156101000203166002900490600052602060002090601f016020900481019282601f1061160a5780548555611647565b8280016001018555821561164757600052602060002091601f016020900482015b8281111561164657825482559160010191906001019061162b565b5b50905061165491906116d8565b5090565b828054600181600116156101000203166002900490600052602060002090601f016020900481019282601f1061169957805160ff19168380011785556116c7565b828001600101855582156116c7579182015b828111156116c65782518255916020019190600101906116ab565b5b5090506116d491906116d8565b5090565b6116fa91905b808211156116f65760008160009055506001016116de565b5090565b9056fea165627a7a723058203fe4ede4429db1cdbd52500324448e18dae12f6d9c5896b42d20ea4dd1bf50800029",
  "source": "pragma solidity ^0.5.0;\n\ncontract MarketApp {\n    address owner; // コントラクトオーナーのアドレス\n    uint256 public numItems; // 商品数\n    bool public stopped; // trueの場合Circuit Breakerが発動し，全てのコントラクトが使用不可能になる\n\n    // コンストラクタ\n    constructor() public {\n        owner = msg.sender; // コントラクトをデプロイしたアドレスをオーナーに指定する\n        numItems = 0;\n        stopped = false;\n    }\n\n    // 呼び出しがコントラクトのオーナーか確認\n    modifier onlyOwner {\n        require(msg.sender == owner);\n        _;\n    }\n\n    // 呼び出しがアカウント登録済みのEthアドレスか確認\n    // modifier onlyUser {\n    //     require(accounts[msg.sender].resistered);\n    //     _;\n    // }\n\n    // ===========================\n    // 取引を行うためのステートと関数\n    // ===========================\n\n    // アカウント情報\n    struct account {\n        string name; //名前\n        string email; //Emailアドレス\n        uint256 numTransactions; //取引回数\n        int256 reputations; //取引評価、大きい値ほど良いアカウント\n        bool resistered; //アカウント未登録:false, 登録済み:true\n        int256 numSell; //出品した商品の数\n        int256 numBuy; //購入した商品の数\n    }\n\n    address[] public users;\n\n    mapping(address => account) accounts;\n\n    mapping(address => uint256[]) public sellItems;\n    mapping(address => uint256[]) public buyItems;\n\n    function registerAccount(string memory _name, string memory _email)\n        public\n        returns (bool)\n    {\n        if (!isUserExist(msg.sender)) {\n            users.push(msg.sender);\n        }\n        accounts[msg.sender].name = _name;\n        accounts[msg.sender].email = _email;\n        return true;\n    }\n\n    function viewAccount(address user)\n        public\n        view\n        returns (string memory, string memory)\n    {\n        string memory _name = accounts[user].name;\n        string memory _email = accounts[user].email;\n        return (_name, _email);\n    }\n\n    function isUserExist(address user) public view returns (bool) {\n        for (uint256 i = 0; i < users.length; i++) {\n            if (users[i] == user) {\n                return true;\n            }\n        }\n        return false;\n    }\n\n    // 商品情報\n    struct item {\n        address sellerAddr; // 出品者のEthアドレス\n        address buyerAddr; // 購入者のEthアドレス\n        string seller; // 出品者名\n        string name; // 商品名\n        string description; // 商品説明\n        uint256 price; // 価格(単位：wei)\n        bool payment; // false:未支払い, true:支払済み\n        bool shipment; // false:未発送, true:発送済み\n        bool receivement; // false:未受取り, true:受取済み\n        bool sellerReputate; // 出品者の評価完了ステート, false:未評価, true:評価済み\n        bool buyerReputate; // 購入者の評価完了ステート, false:未評価, true:評価済み\n        bool stopSell; // false:出品中, true:出品取消し\n    }\n    mapping(uint256 => item) public items;\n\n    // 商品画像の在り処\n    // solidityの構造体は12個までしかメンバを持てないので，商品画像の在り処はitemのメンバにすることができません。\n    // そこで，新たにimagesというデータ構造体を作成します。\n    struct image {\n        string googleDocID; // googleドライブのファイルのid\n        string ipfsHash; // IPFSのファイルハッシュ\n    }\n    mapping(uint256 => image) public images;\n\n    // 出品する関数\n    function sell(\n        string memory _name,\n        string memory _description,\n        uint256 _price,\n        string memory _googleDocID,\n        string memory _ipfsHash\n    ) public {\n        items[numItems].sellerAddr = msg.sender; // 出品者のEthアドレス\n        items[numItems].seller = accounts[msg.sender].name; // 出品者名\n        items[numItems].name = _name; // 商品名\n        items[numItems].description = _description; // 商品説明\n        items[numItems].price = _price; // 商品価格\n        images[numItems].googleDocID = _googleDocID; // googleドライブのファイルid\n        images[numItems].ipfsHash = _ipfsHash; // IPFSのファイルハッシュ\n        accounts[msg.sender].numSell++; // 各アカウントが出品した商品数の更新\n        sellItems[msg.sender].push(numItems); // 各アカウントが出品した商品の番号を記録\n        numItems++; // 出品されている商品数を１つ増やす\n    }\n}\n",
  "sourcePath": "/Users/sho11hei12/react-dapps/MarketApp/dapps-deploy/contracts/Market.sol",
  "compiler": {
    "name": "solc",
    "version": "0.5.2+commit.1df8f40c.Emscripten.clang"
  },
  "schemaVersion": "3.2.3",
  "updatedAt": "2020-09-16T04:06:26.203Z",
  "networkType": "ethereum",
  "devdoc": {
    "methods": {}
  },
  "userdoc": {
    "methods": {}
  }
}