{
  "contractName": "MarketApp",
  "abi": [
    {
      "constant": true,
      "inputs": [
        {
          "name": "",
          "type": "address"
        },
        {
          "name": "",
          "type": "uint256"
        }
      ],
      "name": "sellItems",
      "outputs": [
        {
          "name": "",
          "type": "uint256"
        }
      ],
      "payable": false,
      "stateMutability": "view",
      "type": "function"
    },
    {
      "constant": true,
      "inputs": [
        {
          "name": "",
          "type": "uint256"
        }
      ],
      "name": "users",
      "outputs": [
        {
          "name": "",
          "type": "address"
        }
      ],
      "payable": false,
      "stateMutability": "view",
      "type": "function"
    },
    {
      "constant": true,
      "inputs": [],
      "name": "bonus_eth",
      "outputs": [
        {
          "name": "",
          "type": "uint256"
        }
      ],
      "payable": false,
      "stateMutability": "view",
      "type": "function"
    },
    {
      "constant": true,
      "inputs": [],
      "name": "numItems",
      "outputs": [
        {
          "name": "",
          "type": "uint256"
        }
      ],
      "payable": false,
      "stateMutability": "view",
      "type": "function"
    },
    {
      "constant": true,
      "inputs": [
        {
          "name": "",
          "type": "address"
        },
        {
          "name": "",
          "type": "uint256"
        }
      ],
      "name": "buyItems",
      "outputs": [
        {
          "name": "",
          "type": "uint256"
        }
      ],
      "payable": false,
      "stateMutability": "view",
      "type": "function"
    },
    {
      "constant": true,
      "inputs": [
        {
          "name": "",
          "type": "uint256"
        }
      ],
      "name": "get_eth_accounts",
      "outputs": [
        {
          "name": "entryAddr",
          "type": "address"
        },
        {
          "name": "name",
          "type": "string"
        },
        {
          "name": "email",
          "type": "string"
        }
      ],
      "payable": false,
      "stateMutability": "view",
      "type": "function"
    },
    {
      "constant": true,
      "inputs": [],
      "name": "stopped",
      "outputs": [
        {
          "name": "",
          "type": "bool"
        }
      ],
      "payable": false,
      "stateMutability": "view",
      "type": "function"
    },
    {
      "constant": true,
      "inputs": [
        {
          "name": "",
          "type": "uint256"
        }
      ],
      "name": "images",
      "outputs": [
        {
          "name": "googleDocID",
          "type": "string"
        },
        {
          "name": "ipfsHash",
          "type": "string"
        }
      ],
      "payable": false,
      "stateMutability": "view",
      "type": "function"
    },
    {
      "constant": true,
      "inputs": [
        {
          "name": "",
          "type": "uint256"
        }
      ],
      "name": "items",
      "outputs": [
        {
          "name": "sellerAddr",
          "type": "address"
        },
        {
          "name": "buyerAddr",
          "type": "address"
        },
        {
          "name": "seller",
          "type": "string"
        },
        {
          "name": "name",
          "type": "string"
        },
        {
          "name": "description",
          "type": "string"
        },
        {
          "name": "price",
          "type": "uint256"
        },
        {
          "name": "payment",
          "type": "bool"
        },
        {
          "name": "shipment",
          "type": "bool"
        },
        {
          "name": "receivement",
          "type": "bool"
        },
        {
          "name": "sellerReputate",
          "type": "bool"
        },
        {
          "name": "buyerReputate",
          "type": "bool"
        },
        {
          "name": "stopSell",
          "type": "bool"
        }
      ],
      "payable": false,
      "stateMutability": "view",
      "type": "function"
    },
    {
      "constant": true,
      "inputs": [],
      "name": "total_entry",
      "outputs": [
        {
          "name": "",
          "type": "uint256"
        }
      ],
      "payable": false,
      "stateMutability": "view",
      "type": "function"
    },
    {
      "inputs": [],
      "payable": false,
      "stateMutability": "nonpayable",
      "type": "constructor"
    },
    {
      "constant": false,
      "inputs": [
        {
          "name": "_name",
          "type": "string"
        },
        {
          "name": "_email",
          "type": "string"
        }
      ],
      "name": "registerAccount",
      "outputs": [
        {
          "name": "",
          "type": "bool"
        }
      ],
      "payable": false,
      "stateMutability": "nonpayable",
      "type": "function"
    },
    {
      "constant": true,
      "inputs": [
        {
          "name": "user",
          "type": "address"
        }
      ],
      "name": "isUserExist",
      "outputs": [
        {
          "name": "",
          "type": "bool"
        }
      ],
      "payable": false,
      "stateMutability": "view",
      "type": "function"
    },
    {
      "constant": true,
      "inputs": [
        {
          "name": "user",
          "type": "address"
        }
      ],
      "name": "viewAccount",
      "outputs": [
        {
          "name": "",
          "type": "string"
        },
        {
          "name": "",
          "type": "string"
        }
      ],
      "payable": false,
      "stateMutability": "view",
      "type": "function"
    },
    {
      "constant": true,
      "inputs": [
        {
          "name": "user",
          "type": "address"
        }
      ],
      "name": "viewAccount_Transaction",
      "outputs": [
        {
          "name": "",
          "type": "uint256"
        },
        {
          "name": "",
          "type": "int256"
        },
        {
          "name": "",
          "type": "int256"
        },
        {
          "name": "",
          "type": "int256"
        }
      ],
      "payable": false,
      "stateMutability": "view",
      "type": "function"
    },
    {
      "constant": false,
      "inputs": [
        {
          "name": "_name",
          "type": "string"
        },
        {
          "name": "_description",
          "type": "string"
        },
        {
          "name": "_price",
          "type": "uint256"
        },
        {
          "name": "_googleDocID",
          "type": "string"
        },
        {
          "name": "_ipfsHash",
          "type": "string"
        }
      ],
      "name": "sell",
      "outputs": [],
      "payable": false,
      "stateMutability": "nonpayable",
      "type": "function"
    },
    {
      "constant": false,
      "inputs": [
        {
          "name": "_numItems",
          "type": "uint256"
        }
      ],
      "name": "buy",
      "outputs": [],
      "payable": true,
      "stateMutability": "payable",
      "type": "function"
    },
    {
      "constant": false,
      "inputs": [
        {
          "name": "_numItems",
          "type": "uint256"
        }
      ],
      "name": "ship",
      "outputs": [],
      "payable": false,
      "stateMutability": "nonpayable",
      "type": "function"
    },
    {
      "constant": false,
      "inputs": [
        {
          "name": "_numItems",
          "type": "uint256"
        }
      ],
      "name": "receive",
      "outputs": [],
      "payable": true,
      "stateMutability": "payable",
      "type": "function"
    },
    {
      "constant": false,
      "inputs": [
        {
          "name": "_numItems",
          "type": "uint256"
        },
        {
          "name": "_reputate",
          "type": "int256"
        }
      ],
      "name": "sellerEvaluate",
      "outputs": [],
      "payable": false,
      "stateMutability": "nonpayable",
      "type": "function"
    },
    {
      "constant": false,
      "inputs": [
        {
          "name": "_numItems",
          "type": "uint256"
        },
        {
          "name": "_reputate",
          "type": "int256"
        }
      ],
      "name": "buyerEvaluate",
      "outputs": [],
      "payable": false,
      "stateMutability": "nonpayable",
      "type": "function"
    },
    {
      "constant": false,
      "inputs": [],
      "name": "entry_get_eth",
      "outputs": [],
      "payable": false,
      "stateMutability": "nonpayable",
      "type": "function"
    },
    {
      "constant": true,
      "inputs": [
        {
          "name": "user",
          "type": "address"
        }
      ],
      "name": "view_eth_acc",
      "outputs": [
        {
          "name": "",
          "type": "uint256"
        },
        {
          "name": "",
          "type": "bool"
        }
      ],
      "payable": false,
      "stateMutability": "view",
      "type": "function"
    },
    {
      "constant": false,
      "inputs": [],
      "name": "get_eth",
      "outputs": [],
      "payable": true,
      "stateMutability": "payable",
      "type": "function"
    },
    {
      "constant": false,
      "inputs": [
        {
          "name": "_stopped",
          "type": "bool"
        }
      ],
      "name": "toggleCircuit",
      "outputs": [],
      "payable": false,
      "stateMutability": "nonpayable",
      "type": "function"
    }
  ],
  "bytecode": "0x608060405234801561001057600080fd5b50336000806101000a81548173ffffffffffffffffffffffffffffffffffffffff021916908373ffffffffffffffffffffffffffffffffffffffff16021790555060006001819055506000600260006101000a81548160ff02191690831515021790555060006003819055506000600481905550613255806100936000396000f3fe608060405260043610610167576000357c010000000000000000000000000000000000000000000000000000000090048063715c4467116100d3578063cba2534f1161008c578063cba2534f14610de7578063d87ad17314610e15578063d96a094a14610e2c578063db6b59d714610e5a578063dd6c2c5914610e85578063ddc7b6a714610ec257610167565b8063715c44671461088057806372ca7bfa146108c557806375f12b2114610a185780638485648214610a47578063bfb231d214610b67578063c93d061514610da257610167565b8063365b98b211610125578063365b98b21461059a578063439aed5b146106155780635bfadae41461064057806363fa870b1461066b5780636b55f4a5146106da57806370f980311461081057610167565b806263e6701461016c5780630255fa1e146101db57806305af880e1461024457806322bb93ca146104db57806322d3421214610555578063244f643b1461055f575b600080fd5b34801561017857600080fd5b506101c56004803603604081101561018f57600080fd5b81019080803573ffffffffffffffffffffffffffffffffffffffff16906020019092919080359060200190929190505050611039565b6040518082815260200191505060405180910390f35b3480156101e757600080fd5b5061022a600480360360208110156101fe57600080fd5b81019080803573ffffffffffffffffffffffffffffffffffffffff169060200190929190505050611069565b604051808215151515815260200191505060405180910390f35b34801561025057600080fd5b506104d9600480360360a081101561026757600080fd5b810190808035906020019064010000000081111561028457600080fd5b82018360208201111561029657600080fd5b803590602001918460018302840111640100000000831117156102b857600080fd5b91908080601f016020809104026020016040519081016040528093929190818152602001838380828437600081840152601f19601f8201169050808301925050505050505091929192908035906020019064010000000081111561031b57600080fd5b82018360208201111561032d57600080fd5b8035906020019184600183028401116401000000008311171561034f57600080fd5b91908080601f016020809104026020016040519081016040528093929190818152602001838380828437600081840152601f19601f82011690508083019250505050505050919291929080359060200190929190803590602001906401000000008111156103bc57600080fd5b8201836020820111156103ce57600080fd5b803590602001918460018302840111640100000000831117156103f057600080fd5b91908080601f016020809104026020016040519081016040528093929190818152602001838380828437600081840152601f19601f8201169050808301925050505050505091929192908035906020019064010000000081111561045357600080fd5b82018360208201111561046557600080fd5b8035906020019184600183028401116401000000008311171561048757600080fd5b91908080601f016020809104026020016040519081016040528093929190818152602001838380828437600081840152601f19601f82011690508083019250505050505050919291929050505061110d565b005b3480156104e757600080fd5b5061052a600480360360208110156104fe57600080fd5b81019080803573ffffffffffffffffffffffffffffffffffffffff1690602001909291905050506113fc565b6040518085815260200184815260200183815260200182815260200194505050505060405180910390f35b61055d611535565b005b34801561056b57600080fd5b506105986004803603602081101561058257600080fd5b810190808035906020019092919050505061166c565b005b3480156105a657600080fd5b506105d3600480360360208110156105bd57600080fd5b81019080803590602001909291905050506117e4565b604051808273ffffffffffffffffffffffffffffffffffffffff1673ffffffffffffffffffffffffffffffffffffffff16815260200191505060405180910390f35b34801561062157600080fd5b5061062a611822565b6040518082815260200191505060405180910390f35b34801561064c57600080fd5b50610655611828565b6040518082815260200191505060405180910390f35b34801561067757600080fd5b506106c46004803603604081101561068e57600080fd5b81019080803573ffffffffffffffffffffffffffffffffffffffff1690602001909291908035906020019092919050505061182e565b6040518082815260200191505060405180910390f35b3480156106e657600080fd5b50610729600480360360208110156106fd57600080fd5b81019080803573ffffffffffffffffffffffffffffffffffffffff16906020019092919050505061185e565b604051808060200180602001838103835285818151815260200191508051906020019080838360005b8381101561076d578082015181840152602081019050610752565b50505050905090810190601f16801561079a5780820380516001836020036101000a031916815260200191505b50838103825284818151815260200191508051906020019080838360005b838110156107d35780820151818401526020810190506107b8565b50505050905090810190601f1680156108005780820380516001836020036101000a031916815260200191505b5094505050505060405180910390f35b34801561081c57600080fd5b5061085f6004803603602081101561083357600080fd5b81019080803573ffffffffffffffffffffffffffffffffffffffff169060200190929190505050611a2c565b60405180838152602001821515151581526020019250505060405180910390f35b34801561088c57600080fd5b506108c3600480360360408110156108a357600080fd5b810190808035906020019092919080359060200190929190505050611ad7565b005b3480156108d157600080fd5b506108fe600480360360208110156108e857600080fd5b8101908080359060200190929190505050611d7b565b604051808473ffffffffffffffffffffffffffffffffffffffff1673ffffffffffffffffffffffffffffffffffffffff1681526020018060200180602001838103835285818151815260200191508051906020019080838360005b83811015610974578082015181840152602081019050610959565b50505050905090810190601f1680156109a15780820380516001836020036101000a031916815260200191505b50838103825284818151815260200191508051906020019080838360005b838110156109da5780820151818401526020810190506109bf565b50505050905090810190601f168015610a075780820380516001836020036101000a031916815260200191505b509550505050505060405180910390f35b348015610a2457600080fd5b50610a2d611ef5565b604051808215151515815260200191505060405180910390f35b348015610a5357600080fd5b50610a8060048036036020811015610a6a57600080fd5b8101908080359060200190929190505050611f08565b604051808060200180602001838103835285818151815260200191508051906020019080838360005b83811015610ac4578082015181840152602081019050610aa9565b50505050905090810190601f168015610af15780820380516001836020036101000a031916815260200191505b50838103825284818151815260200191508051906020019080838360005b83811015610b2a578082015181840152602081019050610b0f565b50505050905090810190601f168015610b575780820380516001836020036101000a031916815260200191505b5094505050505060405180910390f35b348015610b7357600080fd5b50610ba060048036036020811015610b8a57600080fd5b810190808035906020019092919050505061205c565b604051808d73ffffffffffffffffffffffffffffffffffffffff1673ffffffffffffffffffffffffffffffffffffffff1681526020018c73ffffffffffffffffffffffffffffffffffffffff1673ffffffffffffffffffffffffffffffffffffffff1681526020018060200180602001806020018b81526020018a151515158152602001891515151581526020018815151515815260200187151515158152602001861515151581526020018515151515815260200184810384528e818151815260200191508051906020019080838360005b83811015610c8e578082015181840152602081019050610c73565b50505050905090810190601f168015610cbb5780820380516001836020036101000a031916815260200191505b5084810383528d818151815260200191508051906020019080838360005b83811015610cf4578082015181840152602081019050610cd9565b50505050905090810190601f168015610d215780820380516001836020036101000a031916815260200191505b5084810382528c818151815260200191508051906020019080838360005b83811015610d5a578082015181840152602081019050610d3f565b50505050905090810190601f168015610d875780820380516001836020036101000a031916815260200191505b509f5050505050505050505050505050505060405180910390f35b348015610dae57600080fd5b50610de560048036036040811015610dc557600080fd5b810190808035906020019092919080359060200190929190505050612312565b005b610e1360048036036020811015610dfd57600080fd5b81019080803590602001909291905050506125b6565b005b348015610e2157600080fd5b50610e2a612802565b005b610e5860048036036020811015610e4257600080fd5b8101908080359060200190929190505050612ae1565b005b348015610e6657600080fd5b50610e6f612d4d565b6040518082815260200191505060405180910390f35b348015610e9157600080fd5b50610ec060048036036020811015610ea857600080fd5b81019080803515159060200190929190505050612d53565b005b348015610ece57600080fd5b5061101f60048036036040811015610ee557600080fd5b8101908080359060200190640100000000811115610f0257600080fd5b820183602082011115610f1457600080fd5b80359060200191846001830284011164010000000083111715610f3657600080fd5b91908080601f016020809104026020016040519081016040528093929190818152602001838380828437600081840152601f19601f82011690508083019250505050505050919291929080359060200190640100000000811115610f9957600080fd5b820183602082011115610fab57600080fd5b80359060200191846001830284011164010000000083111715610fcd57600080fd5b91908080601f016020809104026020016040519081016040528093929190818152602001838380828437600081840152601f19601f820116905080830192505050505050509192919290505050612dcb565b604051808215151515815260200191505060405180910390f35b60076020528160005260406000208181548110151561105457fe5b90600052602060002001600091509150505481565b600080600090505b600580549050811015611102578273ffffffffffffffffffffffffffffffffffffffff166005828154811015156110a457fe5b9060005260206000200160009054906101000a900473ffffffffffffffffffffffffffffffffffffffff1673ffffffffffffffffffffffffffffffffffffffff1614156110f5576001915050611108565b8080600101915050611071565b50600090505b919050565b600660003373ffffffffffffffffffffffffffffffffffffffff1673ffffffffffffffffffffffffffffffffffffffff16815260200190815260200160002060040160009054906101000a900460ff16151561116857600080fd5b600260009054906101000a900460ff1615151561118457600080fd5b3360096000600154815260200190815260200160002060000160006101000a81548173ffffffffffffffffffffffffffffffffffffffff021916908373ffffffffffffffffffffffffffffffffffffffff160217905550600660003373ffffffffffffffffffffffffffffffffffffffff1673ffffffffffffffffffffffffffffffffffffffff16815260200190815260200160002060000160096000600154815260200190815260200160002060020190805460018160011615610100020316600290046112549291906130fd565b50846009600060015481526020019081526020016000206003019080519060200190611281929190613184565b508360096000600154815260200190815260200160002060040190805190602001906112ae929190613184565b50826009600060015481526020019081526020016000206005018190555081600a6000600154815260200190815260200160002060000190805190602001906112f8929190613184565b5080600a600060015481526020019081526020016000206001019080519060200190611325929190613184565b50600660003373ffffffffffffffffffffffffffffffffffffffff1673ffffffffffffffffffffffffffffffffffffffff16815260200190815260200160002060050160008154809291906001019190505550600760003373ffffffffffffffffffffffffffffffffffffffff1673ffffffffffffffffffffffffffffffffffffffff16815260200190815260200160002060015490806001815401808255809150509060018203906000526020600020016000909192909190915055506001600081548092919060010191905055505050505050565b6000806000806000600660008773ffffffffffffffffffffffffffffffffffffffff1673ffffffffffffffffffffffffffffffffffffffff1681526020019081526020016000206002015490506000600660008873ffffffffffffffffffffffffffffffffffffffff1673ffffffffffffffffffffffffffffffffffffffff1681526020019081526020016000206003015490506000600660008973ffffffffffffffffffffffffffffffffffffffff1673ffffffffffffffffffffffffffffffffffffffff1681526020019081526020016000206005015490506000600660008a73ffffffffffffffffffffffffffffffffffffffff1673ffffffffffffffffffffffffffffffffffffffff168152602001908152602001600020600601549050838383839750975097509750505050509193509193565b6000809054906101000a900473ffffffffffffffffffffffffffffffffffffffff1673ffffffffffffffffffffffffffffffffffffffff163373ffffffffffffffffffffffffffffffffffffffff1614151561159057600080fd5b600260009054906101000a900460ff161515156115ac57600080fd5b670de0b6b3a7640000600454101515156115c557600080fd5b60006115cf612f56565b9050600b600082815260200190815260200160002060000160009054906101000a900473ffffffffffffffffffffffffffffffffffffffff1673ffffffffffffffffffffffffffffffffffffffff166108fc6004549081150290604051600060405180830381858888f1935050505015801561164f573d6000803e3d6000fd5b5060006004819055506000600381905550611668612f70565b5050565b600660003373ffffffffffffffffffffffffffffffffffffffff1673ffffffffffffffffffffffffffffffffffffffff16815260200190815260200160002060040160009054906101000a900460ff1615156116c757600080fd5b600260009054906101000a900460ff161515156116e357600080fd5b3373ffffffffffffffffffffffffffffffffffffffff166009600083815260200190815260200160002060000160009054906101000a900473ffffffffffffffffffffffffffffffffffffffff1673ffffffffffffffffffffffffffffffffffffffff1614151561175357600080fd5b6009600082815260200190815260200160002060060160009054906101000a900460ff16151561178257600080fd5b6009600082815260200190815260200160002060060160019054906101000a900460ff161515156117b257600080fd5b60016009600083815260200190815260200160002060060160016101000a81548160ff02191690831515021790555050565b6005818154811015156117f357fe5b906000526020600020016000915054906101000a900473ffffffffffffffffffffffffffffffffffffffff1681565b60045481565b60015481565b60086020528160005260406000208181548110151561184957fe5b90600052602060002001600091509150505481565b6060806060600660008573ffffffffffffffffffffffffffffffffffffffff1673ffffffffffffffffffffffffffffffffffffffff1681526020019081526020016000206000018054600181600116156101000203166002900480601f0160208091040260200160405190810160405280929190818152602001828054600181600116156101000203166002900480156119395780601f1061190e57610100808354040283529160200191611939565b820191906000526020600020905b81548152906001019060200180831161191c57829003601f168201915b505050505090506060600660008673ffffffffffffffffffffffffffffffffffffffff1673ffffffffffffffffffffffffffffffffffffffff1681526020019081526020016000206001018054600181600116156101000203166002900480601f016020809104026020016040519081016040528092919081815260200182805460018160011615610100020316600290048015611a185780601f106119ed57610100808354040283529160200191611a18565b820191906000526020600020905b8154815290600101906020018083116119fb57829003601f168201915b505050505090508181935093505050915091565b6000806000600660008573ffffffffffffffffffffffffffffffffffffffff1673ffffffffffffffffffffffffffffffffffffffff1681526020019081526020016000206002015490506000600660008673ffffffffffffffffffffffffffffffffffffffff1673ffffffffffffffffffffffffffffffffffffffff16815260200190815260200160002060070160009054906101000a900460ff1690508181935093505050915091565b600660003373ffffffffffffffffffffffffffffffffffffffff1673ffffffffffffffffffffffffffffffffffffffff16815260200190815260200160002060040160009054906101000a900460ff161515611b3257600080fd5b600260009054906101000a900460ff16151515611b4e57600080fd5b3373ffffffffffffffffffffffffffffffffffffffff166009600084815260200190815260200160002060010160009054906101000a900473ffffffffffffffffffffffffffffffffffffffff1673ffffffffffffffffffffffffffffffffffffffff16141515611bbe57600080fd5b6009600083815260200190815260200160002060060160029054906101000a900460ff161515611bed57600080fd5b60018112158015611bff575060038113155b1515611c0a57600080fd5b6009600083815260200190815260200160002060060160039054906101000a900460ff16151515611c3a57600080fd5b60016009600084815260200190815260200160002060060160036101000a81548160ff021916908315150217905550600660006009600085815260200190815260200160002060000160009054906101000a900473ffffffffffffffffffffffffffffffffffffffff1673ffffffffffffffffffffffffffffffffffffffff1673ffffffffffffffffffffffffffffffffffffffff1681526020019081526020016000206002016000815480929190600101919050555080600660006009600086815260200190815260200160002060000160009054906101000a900473ffffffffffffffffffffffffffffffffffffffff1673ffffffffffffffffffffffffffffffffffffffff1673ffffffffffffffffffffffffffffffffffffffff168152602001908152602001600020600301600082825401925050819055505050565b600b6020528060005260406000206000915090508060000160009054906101000a900473ffffffffffffffffffffffffffffffffffffffff1690806001018054600181600116156101000203166002900480601f016020809104026020016040519081016040528092919081815260200182805460018160011615610100020316600290048015611e4d5780601f10611e2257610100808354040283529160200191611e4d565b820191906000526020600020905b815481529060010190602001808311611e3057829003601f168201915b505050505090806002018054600181600116156101000203166002900480601f016020809104026020016040519081016040528092919081815260200182805460018160011615610100020316600290048015611eeb5780601f10611ec057610100808354040283529160200191611eeb565b820191906000526020600020905b815481529060010190602001808311611ece57829003601f168201915b5050505050905083565b600260009054906101000a900460ff1681565b600a602052806000526040600020600091509050806000018054600181600116156101000203166002900480601f016020809104026020016040519081016040528092919081815260200182805460018160011615610100020316600290048015611fb45780601f10611f8957610100808354040283529160200191611fb4565b820191906000526020600020905b815481529060010190602001808311611f9757829003601f168201915b505050505090806001018054600181600116156101000203166002900480601f0160208091040260200160405190810160405280929190818152602001828054600181600116156101000203166002900480156120525780601f1061202757610100808354040283529160200191612052565b820191906000526020600020905b81548152906001019060200180831161203557829003601f168201915b5050505050905082565b60096020528060005260406000206000915090508060000160009054906101000a900473ffffffffffffffffffffffffffffffffffffffff16908060010160009054906101000a900473ffffffffffffffffffffffffffffffffffffffff1690806002018054600181600116156101000203166002900480601f0160208091040260200160405190810160405280929190818152602001828054600181600116156101000203166002900480156121545780601f1061212957610100808354040283529160200191612154565b820191906000526020600020905b81548152906001019060200180831161213757829003601f168201915b505050505090806003018054600181600116156101000203166002900480601f0160208091040260200160405190810160405280929190818152602001828054600181600116156101000203166002900480156121f25780601f106121c7576101008083540402835291602001916121f2565b820191906000526020600020905b8154815290600101906020018083116121d557829003601f168201915b505050505090806004018054600181600116156101000203166002900480601f0160208091040260200160405190810160405280929190818152602001828054600181600116156101000203166002900480156122905780601f1061226557610100808354040283529160200191612290565b820191906000526020600020905b81548152906001019060200180831161227357829003601f168201915b5050505050908060050154908060060160009054906101000a900460ff16908060060160019054906101000a900460ff16908060060160029054906101000a900460ff16908060060160039054906101000a900460ff16908060060160049054906101000a900460ff16908060060160059054906101000a900460ff1690508c565b600660003373ffffffffffffffffffffffffffffffffffffffff1673ffffffffffffffffffffffffffffffffffffffff16815260200190815260200160002060040160009054906101000a900460ff16151561236d57600080fd5b600260009054906101000a900460ff1615151561238957600080fd5b3373ffffffffffffffffffffffffffffffffffffffff166009600084815260200190815260200160002060000160009054906101000a900473ffffffffffffffffffffffffffffffffffffffff1673ffffffffffffffffffffffffffffffffffffffff161415156123f957600080fd5b6009600083815260200190815260200160002060060160029054906101000a900460ff16151561242857600080fd5b6001811215801561243a575060038113155b151561244557600080fd5b6009600083815260200190815260200160002060060160049054906101000a900460ff1615151561247557600080fd5b60016009600084815260200190815260200160002060060160046101000a81548160ff021916908315150217905550600660006009600085815260200190815260200160002060010160009054906101000a900473ffffffffffffffffffffffffffffffffffffffff1673ffffffffffffffffffffffffffffffffffffffff1673ffffffffffffffffffffffffffffffffffffffff1681526020019081526020016000206002016000815480929190600101919050555080600660006009600086815260200190815260200160002060010160009054906101000a900473ffffffffffffffffffffffffffffffffffffffff1673ffffffffffffffffffffffffffffffffffffffff1673ffffffffffffffffffffffffffffffffffffffff168152602001908152602001600020600301600082825401925050819055505050565b600660003373ffffffffffffffffffffffffffffffffffffffff1673ffffffffffffffffffffffffffffffffffffffff16815260200190815260200160002060040160009054906101000a900460ff16151561261157600080fd5b600260009054906101000a900460ff1615151561262d57600080fd5b3373ffffffffffffffffffffffffffffffffffffffff166009600083815260200190815260200160002060010160009054906101000a900473ffffffffffffffffffffffffffffffffffffffff1673ffffffffffffffffffffffffffffffffffffffff1614151561269d57600080fd5b6009600082815260200190815260200160002060060160019054906101000a900460ff1615156126cc57600080fd5b6009600082815260200190815260200160002060060160029054906101000a900460ff161515156126fc57600080fd5b60016009600083815260200190815260200160002060060160026101000a81548160ff02191690831515021790555060006005600460096000858152602001908152602001600020600501540281151561275257fe5b0490506005600160096000858152602001908152602001600020600501540281151561277a57fe5b046004819055506009600083815260200190815260200160002060000160009054906101000a900473ffffffffffffffffffffffffffffffffffffffff1673ffffffffffffffffffffffffffffffffffffffff166108fc829081150290604051600060405180830381858888f193505050501580156127fd573d6000803e3d6000fd5b505050565b600660003373ffffffffffffffffffffffffffffffffffffffff1673ffffffffffffffffffffffffffffffffffffffff16815260200190815260200160002060040160009054906101000a900460ff16151561285d57600080fd5b600260009054906101000a900460ff1615151561287957600080fd5b600660003373ffffffffffffffffffffffffffffffffffffffff1673ffffffffffffffffffffffffffffffffffffffff16815260200190815260200160002060070160009054906101000a900460ff161515156128d557600080fd5b6001600660003373ffffffffffffffffffffffffffffffffffffffff1673ffffffffffffffffffffffffffffffffffffffff168152602001908152602001600020600201541015151561292757600080fd5b33600b6000600354815260200190815260200160002060000160006101000a81548173ffffffffffffffffffffffffffffffffffffffff021916908373ffffffffffffffffffffffffffffffffffffffff160217905550600660003373ffffffffffffffffffffffffffffffffffffffff1673ffffffffffffffffffffffffffffffffffffffff168152602001908152602001600020600001600b6000600354815260200190815260200160002060010190805460018160011615610100020316600290046129f79291906130fd565b50600660003373ffffffffffffffffffffffffffffffffffffffff1673ffffffffffffffffffffffffffffffffffffffff168152602001908152602001600020600101600b600060035481526020019081526020016000206002019080546001816001161561010002031660029004612a719291906130fd565b506001600660003373ffffffffffffffffffffffffffffffffffffffff1673ffffffffffffffffffffffffffffffffffffffff16815260200190815260200160002060070160006101000a81548160ff021916908315150217905550600360008154809291906001019190505550565b600660003373ffffffffffffffffffffffffffffffffffffffff1673ffffffffffffffffffffffffffffffffffffffff16815260200190815260200160002060040160009054906101000a900460ff161515612b3c57600080fd5b600260009054906101000a900460ff16151515612b5857600080fd5b6009600082815260200190815260200160002060060160009054906101000a900460ff16151515612b8857600080fd5b6009600082815260200190815260200160002060060160059054906101000a900460ff16151515612bb857600080fd5b346009600083815260200190815260200160002060050154141515612bdc57600080fd5b60016009600083815260200190815260200160002060060160006101000a81548160ff02191690831515021790555060016009600083815260200190815260200160002060060160056101000a81548160ff021916908315150217905550336009600083815260200190815260200160002060010160006101000a81548173ffffffffffffffffffffffffffffffffffffffff021916908373ffffffffffffffffffffffffffffffffffffffff160217905550600660003373ffffffffffffffffffffffffffffffffffffffff1673ffffffffffffffffffffffffffffffffffffffff16815260200190815260200160002060060160008154809291906001019190505550600860003373ffffffffffffffffffffffffffffffffffffffff1673ffffffffffffffffffffffffffffffffffffffff16815260200190815260200160002081908060018154018082558091505090600182039060005260206000200160009091929091909150555050565b60035481565b6000809054906101000a900473ffffffffffffffffffffffffffffffffffffffff1673ffffffffffffffffffffffffffffffffffffffff163373ffffffffffffffffffffffffffffffffffffffff16141515612dae57600080fd5b80600260006101000a81548160ff02191690831515021790555050565b6000612dd633611069565b1515612e9e576001600660003373ffffffffffffffffffffffffffffffffffffffff1673ffffffffffffffffffffffffffffffffffffffff16815260200190815260200160002060040160006101000a81548160ff02191690831515021790555060053390806001815401808255809150509060018203906000526020600020016000909192909190916101000a81548173ffffffffffffffffffffffffffffffffffffffff021916908373ffffffffffffffffffffffffffffffffffffffff160217905550505b82600660003373ffffffffffffffffffffffffffffffffffffffff1673ffffffffffffffffffffffffffffffffffffffff1681526020019081526020016000206000019080519060200190612ef4929190613184565b5081600660003373ffffffffffffffffffffffffffffffffffffffff1673ffffffffffffffffffffffffffffffffffffffff1681526020019081526020016000206001019080519060200190612f4b929190613184565b506001905092915050565b60008060035442811515612f6657fe5b0690508091505090565b60008060009054906101000a900473ffffffffffffffffffffffffffffffffffffffff1673ffffffffffffffffffffffffffffffffffffffff163373ffffffffffffffffffffffffffffffffffffffff16141515612fcd57600080fd5b600260009054906101000a900460ff16151515612fe957600080fd5b60008090505b6005805490508110156130f957600060058281548110151561300d57fe5b9060005260206000200160009054906101000a900473ffffffffffffffffffffffffffffffffffffffff169050600660008273ffffffffffffffffffffffffffffffffffffffff1673ffffffffffffffffffffffffffffffffffffffff16815260200190815260200160002060070160009054906101000a900460ff16156130eb576000600660008373ffffffffffffffffffffffffffffffffffffffff1673ffffffffffffffffffffffffffffffffffffffff16815260200190815260200160002060070160006101000a81548160ff0219169083151502179055505b508080600101915050612fef565b5090565b828054600181600116156101000203166002900490600052602060002090601f016020900481019282601f106131365780548555613173565b8280016001018555821561317357600052602060002091601f016020900482015b82811115613172578254825591600101919060010190613157565b5b5090506131809190613204565b5090565b828054600181600116156101000203166002900490600052602060002090601f016020900481019282601f106131c557805160ff19168380011785556131f3565b828001600101855582156131f3579182015b828111156131f25782518255916020019190600101906131d7565b5b5090506132009190613204565b5090565b61322691905b8082111561322257600081600090555060010161320a565b5090565b9056fea165627a7a72305820d99d27a1f06b00b597d2e6b7341ae55b36887b31bd0cfb298b862e20bf3081690029",
  "source": "pragma solidity ^0.5.0;\n\ncontract MarketApp {\n    address owner; // \n    uint256 public numItems; // \n    bool public stopped; // true\n    uint256 public total_entry; // eth\n    uint256 public bonus_eth; // ether\n\n    // \n    constructor() public {\n        owner = msg.sender; // \n        numItems = 0;\n        stopped = false;\n        total_entry = 0;\n        bonus_eth = 0;\n    }\n\n    // \n    modifier onlyOwner {\n        require(msg.sender == owner);\n        _;\n    }\n\n    // Eth\n    modifier onlyUser {\n        require(accounts[msg.sender].resistered);\n        _;\n    }\n\n    // ===========================\n    // \n    // ===========================\n\n    // \n    struct account {\n        string name; //\n        string email; //Email\n        uint256 numTransactions; //\n        int256 reputations; //\n        bool resistered; //:false, :true\n        int256 numSell; //\n        int256 numBuy; //\n        bool entryed; // false, true\n    }\n\n    address[] public users; // \n\n    mapping(address => account) accounts;\n\n    mapping(address => uint256[]) public sellItems;\n    mapping(address => uint256[]) public buyItems;\n\n    // \n    function registerAccount(string memory _name, string memory _email)\n        public\n        returns (bool)\n    {\n        //\n        if (!isUserExist(msg.sender)) {\n            accounts[msg.sender].resistered = true;\n            users.push(msg.sender);\n        }\n        accounts[msg.sender].name = _name;\n        accounts[msg.sender].email = _email;\n        return true;\n    }\n\n    // \n    function isUserExist(address user) public view returns (bool) {\n        for (uint256 i = 0; i < users.length; i++) {\n            if (users[i] == user) {\n                return true;\n            }\n        }\n        return false;\n    }\n\n    // \n    function viewAccount(address user)\n        public\n        view\n        returns (string memory, string memory)\n    {\n        string memory _name = accounts[user].name;\n        string memory _email = accounts[user].email;\n\n        return (_name, _email);\n    }\n\n    // \n    function viewAccount_Transaction(address user)\n        public\n        view\n        returns (\n            uint256,\n            int256,\n            int256,\n            int256\n        )\n    {\n        uint256 _numTransactions = accounts[user].numTransactions;\n        int256 _reputations = accounts[user].reputations;\n        int256 _numSell = accounts[user].numSell;\n        int256 _numBuy = accounts[user].numBuy;\n\n        return (_numTransactions, _reputations, _numSell, _numBuy);\n    }\n\n    // \n    struct item {\n        address payable sellerAddr; // Eth\n        address payable buyerAddr; // Eth\n        string seller; // \n        string name; // \n        string description; // \n        uint256 price; // (wei)\n        bool payment; // false:, true:\n        bool shipment; // false:, true:\n        bool receivement; // false:, true:\n        bool sellerReputate; // , false:, true:\n        bool buyerReputate; // , false:, true:\n        bool stopSell; // false:, true:\n    }\n    mapping(uint256 => item) public items;\n\n    // \n    // solidity12item\n    // images\n    struct image {\n        string googleDocID; // googleid\n        string ipfsHash; // IPFS\n    }\n    mapping(uint256 => image) public images;\n\n    // \n    function sell(\n        string memory _name,\n        string memory _description,\n        uint256 _price,\n        string memory _googleDocID,\n        string memory _ipfsHash\n    ) public onlyUser isStopped {\n        items[numItems].sellerAddr = msg.sender; // Eth\n        items[numItems].seller = accounts[msg.sender].name; // \n        items[numItems].name = _name; // \n        items[numItems].description = _description; // \n        items[numItems].price = _price; // \n        images[numItems].googleDocID = _googleDocID; // googleid\n        images[numItems].ipfsHash = _ipfsHash; // IPFS\n        accounts[msg.sender].numSell++; // \n        sellItems[msg.sender].push(numItems); // \n        numItems++; // \n    }\n\n    // \n    // \n    function buy(uint256 _numItems) public payable onlyUser isStopped {\n        require(!items[_numItems].payment); // \n        require(!items[_numItems].stopSell); // \n\n        require(items[_numItems].price == msg.value); // \n\n        items[_numItems].payment = true; // \n        items[_numItems].stopSell = true; // \n        items[_numItems].buyerAddr = msg.sender; // Eth\n        accounts[msg.sender].numBuy++; // \n        buyItems[msg.sender].push(_numItems); // \n    }\n\n    // \n    function ship(uint256 _numItems) public onlyUser isStopped {\n        require(items[_numItems].sellerAddr == msg.sender); // \n        require(items[_numItems].payment); // \n        require(!items[_numItems].shipment); // \n\n        items[_numItems].shipment = true; // \n    }\n\n    // \n    function receive(uint256 _numItems) public payable onlyUser isStopped {\n        require(items[_numItems].buyerAddr == msg.sender); // \n        require(items[_numItems].shipment); // \n        require(!items[_numItems].receivement); // \n\n        items[_numItems].receivement = true; // \n\n        uint256 money = (items[_numItems].price * 4) / 5; // 20%\n        bonus_eth = (items[_numItems].price * 1) / 5; // 20%bonus_eth\n\n        // \n        items[_numItems].sellerAddr.transfer(money);\n    }\n\n    // \n    // \n    function sellerEvaluate(uint256 _numItems, int256 _reputate)\n        public\n        onlyUser\n        isStopped\n    {\n        require(items[_numItems].buyerAddr == msg.sender); // \n        require(items[_numItems].receivement); // \n        require(_reputate >= 1 && _reputate <= 3); // 1 ~ 3\n        require(!items[_numItems].sellerReputate); // \n\n        items[_numItems].sellerReputate = true; // \n        accounts[items[_numItems].sellerAddr].numTransactions++; // \n        accounts[items[_numItems].sellerAddr].reputations += _reputate; // \n    }\n\n    // \n    function buyerEvaluate(uint256 _numItems, int256 _reputate)\n        public\n        onlyUser\n        isStopped\n    {\n        require(items[_numItems].sellerAddr == msg.sender); // \n        require(items[_numItems].receivement); // \n        require(_reputate >= 1 && _reputate <= 3); // 1 ~ 3\n        require(!items[_numItems].buyerReputate); // \n\n        items[_numItems].buyerReputate = true; // \n        accounts[items[_numItems].buyerAddr].numTransactions++; // \n        accounts[items[_numItems].buyerAddr].reputations += _reputate; // \n    }\n\n    // ================\n    // Eth\n    // ================\n\n    // eth\n    struct get_eth_account {\n        address payable entryAddr; // Eth\n        string name; //\n        string email; //Email\n    }\n\n    mapping(uint256 => get_eth_account) public get_eth_accounts;\n\n    // eth_get\n    function entry_get_eth() public onlyUser isStopped {\n        // \n        require(!accounts[msg.sender].entryed);\n        require(accounts[msg.sender].numTransactions >= 1); // 1\n\n        get_eth_accounts[total_entry].entryAddr = msg.sender; //\n        get_eth_accounts[total_entry].name = accounts[msg.sender].name; //\n        get_eth_accounts[total_entry].email = accounts[msg.sender].email; //\n        accounts[msg.sender].entryed = true;\n        total_entry++;\n    }\n\n    // \n    function view_eth_acc(address user) public view returns (uint256, bool) {\n        uint256 _entry_condition1 = accounts[user].numTransactions;\n        bool _entry_condition2 = accounts[user].entryed;\n\n        return (_entry_condition1, _entry_condition2);\n    }\n\n    // \n    // function random() private view returns (uint256) {\n    //     return\n    //         uint256(\n    //             keccak256(abi.encodePacked(block.difficulty, now, msg.sender))\n    //         );\n    // }\n\n    // function randMod(uint _randNonce, uint _modulus) public view returns(uint) {\n    //     return uint(keccak256(abi.encodePacked(now, msg.sender, _randNonce))) % _modulus;\n    // }\n\n    // \n    function random() internal view returns (uint256) {\n        uint256 randnum = block.timestamp % total_entry;\n\n        return uint256(randnum);\n    }\n\n    // eth\n    function get_eth() public payable onlyOwner isStopped {\n        require(bonus_eth >= 1 ether);\n\n        uint256 idx = random();\n        get_eth_accounts[idx].entryAddr.transfer(bonus_eth);\n        bonus_eth = 0;\n        total_entry = 0;\n        entry_false();\n    }\n\n    // false\n    function entry_false() internal onlyOwner isStopped returns (uint256) {\n        for (uint256 i = 0; i < users.length; i++) {\n            address index = users[i];\n            if (accounts[index].entryed) {\n                accounts[index].entryed = false;\n            }\n        }\n    }\n\n    // ================\n    // \n    // ================\n\n    // Circuit Breaker\n    modifier isStopped {\n        require(!stopped);\n        _;\n    }\n\n    // Circuit Breaker\n    function toggleCircuit(bool _stopped) public onlyOwner {\n        stopped = _stopped;\n    }\n\n    // \n    // \n    // function kill() public onlyOwner {\n    //     selfdestruct(owner);\n    // }\n}\n",
  "sourcePath": "/Users/sho11hei12/react-dapps/MarketApp/dapps-deploy/contracts/Market.sol",
  "compiler": {
    "name": "solc",
    "version": "0.5.2+commit.1df8f40c.Emscripten.clang"
  },
  "schemaVersion": "3.2.3",
  "updatedAt": "2020-11-05T12:35:24.741Z",
  "networkType": "ethereum",
  "devdoc": {
    "methods": {}
  },
  "userdoc": {
    "methods": {}
  }
}