{
  "contractName": "MarketApp",
  "abi": [
    {
      "constant": true,
      "inputs": [
        {
          "name": "",
          "type": "address"
        },
        {
          "name": "",
          "type": "uint256"
        }
      ],
      "name": "sellItems",
      "outputs": [
        {
          "name": "",
          "type": "uint256"
        }
      ],
      "payable": false,
      "stateMutability": "view",
      "type": "function"
    },
    {
      "constant": true,
      "inputs": [
        {
          "name": "",
          "type": "uint256"
        }
      ],
      "name": "users",
      "outputs": [
        {
          "name": "",
          "type": "address"
        }
      ],
      "payable": false,
      "stateMutability": "view",
      "type": "function"
    },
    {
      "constant": true,
      "inputs": [],
      "name": "numItems",
      "outputs": [
        {
          "name": "",
          "type": "uint256"
        }
      ],
      "payable": false,
      "stateMutability": "view",
      "type": "function"
    },
    {
      "constant": true,
      "inputs": [
        {
          "name": "",
          "type": "address"
        },
        {
          "name": "",
          "type": "uint256"
        }
      ],
      "name": "buyItems",
      "outputs": [
        {
          "name": "",
          "type": "uint256"
        }
      ],
      "payable": false,
      "stateMutability": "view",
      "type": "function"
    },
    {
      "constant": true,
      "inputs": [],
      "name": "stopped",
      "outputs": [
        {
          "name": "",
          "type": "bool"
        }
      ],
      "payable": false,
      "stateMutability": "view",
      "type": "function"
    },
    {
      "constant": true,
      "inputs": [
        {
          "name": "",
          "type": "uint256"
        }
      ],
      "name": "images",
      "outputs": [
        {
          "name": "googleDocID",
          "type": "string"
        },
        {
          "name": "ipfsHash",
          "type": "string"
        }
      ],
      "payable": false,
      "stateMutability": "view",
      "type": "function"
    },
    {
      "constant": true,
      "inputs": [
        {
          "name": "",
          "type": "uint256"
        }
      ],
      "name": "items",
      "outputs": [
        {
          "name": "sellerAddr",
          "type": "address"
        },
        {
          "name": "buyerAddr",
          "type": "address"
        },
        {
          "name": "seller",
          "type": "string"
        },
        {
          "name": "name",
          "type": "string"
        },
        {
          "name": "description",
          "type": "string"
        },
        {
          "name": "price",
          "type": "uint256"
        },
        {
          "name": "payment",
          "type": "bool"
        },
        {
          "name": "shipment",
          "type": "bool"
        },
        {
          "name": "receivement",
          "type": "bool"
        },
        {
          "name": "sellerReputate",
          "type": "bool"
        },
        {
          "name": "buyerReputate",
          "type": "bool"
        },
        {
          "name": "stopSell",
          "type": "bool"
        }
      ],
      "payable": false,
      "stateMutability": "view",
      "type": "function"
    },
    {
      "inputs": [],
      "payable": false,
      "stateMutability": "nonpayable",
      "type": "constructor"
    },
    {
      "constant": false,
      "inputs": [
        {
          "name": "_name",
          "type": "string"
        },
        {
          "name": "_email",
          "type": "string"
        }
      ],
      "name": "registerAccount",
      "outputs": [
        {
          "name": "",
          "type": "bool"
        }
      ],
      "payable": false,
      "stateMutability": "nonpayable",
      "type": "function"
    },
    {
      "constant": true,
      "inputs": [
        {
          "name": "user",
          "type": "address"
        }
      ],
      "name": "viewAccount",
      "outputs": [
        {
          "name": "",
          "type": "string"
        },
        {
          "name": "",
          "type": "string"
        }
      ],
      "payable": false,
      "stateMutability": "view",
      "type": "function"
    },
    {
      "constant": true,
      "inputs": [
        {
          "name": "user",
          "type": "address"
        }
      ],
      "name": "viewAccount_Transaction",
      "outputs": [
        {
          "name": "",
          "type": "uint256"
        },
        {
          "name": "",
          "type": "int256"
        },
        {
          "name": "",
          "type": "int256"
        },
        {
          "name": "",
          "type": "int256"
        }
      ],
      "payable": false,
      "stateMutability": "view",
      "type": "function"
    },
    {
      "constant": true,
      "inputs": [
        {
          "name": "user",
          "type": "address"
        }
      ],
      "name": "isUserExist",
      "outputs": [
        {
          "name": "",
          "type": "bool"
        }
      ],
      "payable": false,
      "stateMutability": "view",
      "type": "function"
    },
    {
      "constant": false,
      "inputs": [
        {
          "name": "_name",
          "type": "string"
        },
        {
          "name": "_description",
          "type": "string"
        },
        {
          "name": "_price",
          "type": "uint256"
        },
        {
          "name": "_googleDocID",
          "type": "string"
        },
        {
          "name": "_ipfsHash",
          "type": "string"
        }
      ],
      "name": "sell",
      "outputs": [],
      "payable": false,
      "stateMutability": "nonpayable",
      "type": "function"
    },
    {
      "constant": false,
      "inputs": [
        {
          "name": "_numItems",
          "type": "uint256"
        }
      ],
      "name": "buy",
      "outputs": [],
      "payable": true,
      "stateMutability": "payable",
      "type": "function"
    },
    {
      "constant": false,
      "inputs": [
        {
          "name": "_numItems",
          "type": "uint256"
        }
      ],
      "name": "ship",
      "outputs": [],
      "payable": false,
      "stateMutability": "nonpayable",
      "type": "function"
    },
    {
      "constant": false,
      "inputs": [
        {
          "name": "_numItems",
          "type": "uint256"
        }
      ],
      "name": "receive",
      "outputs": [],
      "payable": true,
      "stateMutability": "payable",
      "type": "function"
    },
    {
      "constant": false,
      "inputs": [
        {
          "name": "_numItems",
          "type": "uint256"
        },
        {
          "name": "_reputate",
          "type": "int256"
        }
      ],
      "name": "sellerEvaluate",
      "outputs": [],
      "payable": false,
      "stateMutability": "nonpayable",
      "type": "function"
    },
    {
      "constant": false,
      "inputs": [
        {
          "name": "_numItems",
          "type": "uint256"
        },
        {
          "name": "_reputate",
          "type": "int256"
        }
      ],
      "name": "buyerEvaluate",
      "outputs": [],
      "payable": false,
      "stateMutability": "nonpayable",
      "type": "function"
    },
    {
      "constant": false,
      "inputs": [
        {
          "name": "_stopped",
          "type": "bool"
        }
      ],
      "name": "toggleCircuit",
      "outputs": [],
      "payable": false,
      "stateMutability": "nonpayable",
      "type": "function"
    }
  ],
  "bytecode": "0x608060405234801561001057600080fd5b50336000806101000a81548173ffffffffffffffffffffffffffffffffffffffff021916908373ffffffffffffffffffffffffffffffffffffffff16021790555060006001819055506000600260006101000a81548160ff0219169083151502179055506126cd806100836000396000f3fe608060405260043610610125576000357c010000000000000000000000000000000000000000000000000000000090048063715c4467116100b2578063c93d061511610081578063c93d061514610b68578063cba2534f14610bad578063d96a094a14610bdb578063dd6c2c5914610c09578063ddc7b6a714610c4657610125565b8063715c44671461079957806375f12b21146107de578063848564821461080d578063bfb231d21461092d57610125565b8063244f643b116100f9578063244f643b14610513578063365b98b21461054e5780635bfadae4146105c957806363fa870b146105f45780636b55f4a51461066357610125565b806263e6701461012a5780630255fa1e1461019957806305af880e1461020257806322bb93ca14610499575b600080fd5b34801561013657600080fd5b506101836004803603604081101561014d57600080fd5b81019080803573ffffffffffffffffffffffffffffffffffffffff16906020019092919080359060200190929190505050610dbd565b6040518082815260200191505060405180910390f35b3480156101a557600080fd5b506101e8600480360360208110156101bc57600080fd5b81019080803573ffffffffffffffffffffffffffffffffffffffff169060200190929190505050610ded565b604051808215151515815260200191505060405180910390f35b34801561020e57600080fd5b50610497600480360360a081101561022557600080fd5b810190808035906020019064010000000081111561024257600080fd5b82018360208201111561025457600080fd5b8035906020019184600183028401116401000000008311171561027657600080fd5b91908080601f016020809104026020016040519081016040528093929190818152602001838380828437600081840152601f19601f820116905080830192505050505050509192919290803590602001906401000000008111156102d957600080fd5b8201836020820111156102eb57600080fd5b8035906020019184600183028401116401000000008311171561030d57600080fd5b91908080601f016020809104026020016040519081016040528093929190818152602001838380828437600081840152601f19601f820116905080830192505050505050509192919290803590602001909291908035906020019064010000000081111561037a57600080fd5b82018360208201111561038c57600080fd5b803590602001918460018302840111640100000000831117156103ae57600080fd5b91908080601f016020809104026020016040519081016040528093929190818152602001838380828437600081840152601f19601f8201169050808301925050505050505091929192908035906020019064010000000081111561041157600080fd5b82018360208201111561042357600080fd5b8035906020019184600183028401116401000000008311171561044557600080fd5b91908080601f016020809104026020016040519081016040528093929190818152602001838380828437600081840152601f19601f820116905080830192505050505050509192919290505050610e91565b005b3480156104a557600080fd5b506104e8600480360360208110156104bc57600080fd5b81019080803573ffffffffffffffffffffffffffffffffffffffff169060200190929190505050611109565b6040518085815260200184815260200183815260200182815260200194505050505060405180910390f35b34801561051f57600080fd5b5061054c6004803603602081101561053657600080fd5b8101908080359060200190929190505050611242565b005b34801561055a57600080fd5b506105876004803603602081101561057157600080fd5b81019080803590602001909291905050506113ba565b604051808273ffffffffffffffffffffffffffffffffffffffff1673ffffffffffffffffffffffffffffffffffffffff16815260200191505060405180910390f35b3480156105d557600080fd5b506105de6113f8565b6040518082815260200191505060405180910390f35b34801561060057600080fd5b5061064d6004803603604081101561061757600080fd5b81019080803573ffffffffffffffffffffffffffffffffffffffff169060200190929190803590602001909291905050506113fe565b6040518082815260200191505060405180910390f35b34801561066f57600080fd5b506106b26004803603602081101561068657600080fd5b81019080803573ffffffffffffffffffffffffffffffffffffffff16906020019092919050505061142e565b604051808060200180602001838103835285818151815260200191508051906020019080838360005b838110156106f65780820151818401526020810190506106db565b50505050905090810190601f1680156107235780820380516001836020036101000a031916815260200191505b50838103825284818151815260200191508051906020019080838360005b8381101561075c578082015181840152602081019050610741565b50505050905090810190601f1680156107895780820380516001836020036101000a031916815260200191505b5094505050505060405180910390f35b3480156107a557600080fd5b506107dc600480360360408110156107bc57600080fd5b8101908080359060200190929190803590602001909291905050506115fc565b005b3480156107ea57600080fd5b506107f36118a0565b604051808215151515815260200191505060405180910390f35b34801561081957600080fd5b506108466004803603602081101561083057600080fd5b81019080803590602001909291905050506118b3565b604051808060200180602001838103835285818151815260200191508051906020019080838360005b8381101561088a57808201518184015260208101905061086f565b50505050905090810190601f1680156108b75780820380516001836020036101000a031916815260200191505b50838103825284818151815260200191508051906020019080838360005b838110156108f05780820151818401526020810190506108d5565b50505050905090810190601f16801561091d5780820380516001836020036101000a031916815260200191505b5094505050505060405180910390f35b34801561093957600080fd5b506109666004803603602081101561095057600080fd5b8101908080359060200190929190505050611a07565b604051808d73ffffffffffffffffffffffffffffffffffffffff1673ffffffffffffffffffffffffffffffffffffffff1681526020018c73ffffffffffffffffffffffffffffffffffffffff1673ffffffffffffffffffffffffffffffffffffffff1681526020018060200180602001806020018b81526020018a151515158152602001891515151581526020018815151515815260200187151515158152602001861515151581526020018515151515815260200184810384528e818151815260200191508051906020019080838360005b83811015610a54578082015181840152602081019050610a39565b50505050905090810190601f168015610a815780820380516001836020036101000a031916815260200191505b5084810383528d818151815260200191508051906020019080838360005b83811015610aba578082015181840152602081019050610a9f565b50505050905090810190601f168015610ae75780820380516001836020036101000a031916815260200191505b5084810382528c818151815260200191508051906020019080838360005b83811015610b20578082015181840152602081019050610b05565b50505050905090810190601f168015610b4d5780820380516001836020036101000a031916815260200191505b509f5050505050505050505050505050505060405180910390f35b348015610b7457600080fd5b50610bab60048036036040811015610b8b57600080fd5b810190808035906020019092919080359060200190929190505050611cbd565b005b610bd960048036036020811015610bc357600080fd5b8101908080359060200190929190505050611f61565b005b610c0760048036036020811015610bf157600080fd5b810190808035906020019092919050505061216c565b005b348015610c1557600080fd5b50610c4460048036036020811015610c2c57600080fd5b810190808035151590602001909291905050506123d8565b005b348015610c5257600080fd5b50610da360048036036040811015610c6957600080fd5b8101908080359060200190640100000000811115610c8657600080fd5b820183602082011115610c9857600080fd5b80359060200191846001830284011164010000000083111715610cba57600080fd5b91908080601f016020809104026020016040519081016040528093929190818152602001838380828437600081840152601f19601f82011690508083019250505050505050919291929080359060200190640100000000811115610d1d57600080fd5b820183602082011115610d2f57600080fd5b80359060200191846001830284011164010000000083111715610d5157600080fd5b91908080601f016020809104026020016040519081016040528093929190818152602001838380828437600081840152601f19601f820116905080830192505050505050509192919290505050612450565b604051808215151515815260200191505060405180910390f35b600560205281600052604060002081815481101515610dd857fe5b90600052602060002001600091509150505481565b600080600090505b600380549050811015610e86578273ffffffffffffffffffffffffffffffffffffffff16600382815481101515610e2857fe5b9060005260206000200160009054906101000a900473ffffffffffffffffffffffffffffffffffffffff1673ffffffffffffffffffffffffffffffffffffffff161415610e79576001915050610e8c565b8080600101915050610df5565b50600090505b919050565b3360076000600154815260200190815260200160002060000160006101000a81548173ffffffffffffffffffffffffffffffffffffffff021916908373ffffffffffffffffffffffffffffffffffffffff160217905550600460003373ffffffffffffffffffffffffffffffffffffffff1673ffffffffffffffffffffffffffffffffffffffff1681526020019081526020016000206000016007600060015481526020019081526020016000206002019080546001816001161561010002031660029004610f61929190612575565b50846007600060015481526020019081526020016000206003019080519060200190610f8e9291906125fc565b50836007600060015481526020019081526020016000206004019080519060200190610fbb9291906125fc565b5082600760006001548152602001908152602001600020600501819055508160086000600154815260200190815260200160002060000190805190602001906110059291906125fc565b508060086000600154815260200190815260200160002060010190805190602001906110329291906125fc565b50600460003373ffffffffffffffffffffffffffffffffffffffff1673ffffffffffffffffffffffffffffffffffffffff16815260200190815260200160002060050160008154809291906001019190505550600560003373ffffffffffffffffffffffffffffffffffffffff1673ffffffffffffffffffffffffffffffffffffffff16815260200190815260200160002060015490806001815401808255809150509060018203906000526020600020016000909192909190915055506001600081548092919060010191905055505050505050565b6000806000806000600460008773ffffffffffffffffffffffffffffffffffffffff1673ffffffffffffffffffffffffffffffffffffffff1681526020019081526020016000206002015490506000600460008873ffffffffffffffffffffffffffffffffffffffff1673ffffffffffffffffffffffffffffffffffffffff1681526020019081526020016000206003015490506000600460008973ffffffffffffffffffffffffffffffffffffffff1673ffffffffffffffffffffffffffffffffffffffff1681526020019081526020016000206005015490506000600460008a73ffffffffffffffffffffffffffffffffffffffff1673ffffffffffffffffffffffffffffffffffffffff168152602001908152602001600020600601549050838383839750975097509750505050509193509193565b600460003373ffffffffffffffffffffffffffffffffffffffff1673ffffffffffffffffffffffffffffffffffffffff16815260200190815260200160002060040160009054906101000a900460ff16151561129d57600080fd5b600260009054906101000a900460ff161515156112b957600080fd5b3373ffffffffffffffffffffffffffffffffffffffff166007600083815260200190815260200160002060000160009054906101000a900473ffffffffffffffffffffffffffffffffffffffff1673ffffffffffffffffffffffffffffffffffffffff1614151561132957600080fd5b6007600082815260200190815260200160002060060160009054906101000a900460ff16151561135857600080fd5b6007600082815260200190815260200160002060060160019054906101000a900460ff1615151561138857600080fd5b60016007600083815260200190815260200160002060060160016101000a81548160ff02191690831515021790555050565b6003818154811015156113c957fe5b906000526020600020016000915054906101000a900473ffffffffffffffffffffffffffffffffffffffff1681565b60015481565b60066020528160005260406000208181548110151561141957fe5b90600052602060002001600091509150505481565b6060806060600460008573ffffffffffffffffffffffffffffffffffffffff1673ffffffffffffffffffffffffffffffffffffffff1681526020019081526020016000206000018054600181600116156101000203166002900480601f0160208091040260200160405190810160405280929190818152602001828054600181600116156101000203166002900480156115095780601f106114de57610100808354040283529160200191611509565b820191906000526020600020905b8154815290600101906020018083116114ec57829003601f168201915b505050505090506060600460008673ffffffffffffffffffffffffffffffffffffffff1673ffffffffffffffffffffffffffffffffffffffff1681526020019081526020016000206001018054600181600116156101000203166002900480601f0160208091040260200160405190810160405280929190818152602001828054600181600116156101000203166002900480156115e85780601f106115bd576101008083540402835291602001916115e8565b820191906000526020600020905b8154815290600101906020018083116115cb57829003601f168201915b505050505090508181935093505050915091565b600460003373ffffffffffffffffffffffffffffffffffffffff1673ffffffffffffffffffffffffffffffffffffffff16815260200190815260200160002060040160009054906101000a900460ff16151561165757600080fd5b600260009054906101000a900460ff1615151561167357600080fd5b3373ffffffffffffffffffffffffffffffffffffffff166007600084815260200190815260200160002060010160009054906101000a900473ffffffffffffffffffffffffffffffffffffffff1673ffffffffffffffffffffffffffffffffffffffff161415156116e357600080fd5b6007600083815260200190815260200160002060060160029054906101000a900460ff16151561171257600080fd5b60018112158015611724575060038113155b151561172f57600080fd5b6007600083815260200190815260200160002060060160039054906101000a900460ff1615151561175f57600080fd5b60016007600084815260200190815260200160002060060160036101000a81548160ff021916908315150217905550600460006007600085815260200190815260200160002060000160009054906101000a900473ffffffffffffffffffffffffffffffffffffffff1673ffffffffffffffffffffffffffffffffffffffff1673ffffffffffffffffffffffffffffffffffffffff1681526020019081526020016000206002016000815480929190600101919050555080600460006007600086815260200190815260200160002060000160009054906101000a900473ffffffffffffffffffffffffffffffffffffffff1673ffffffffffffffffffffffffffffffffffffffff1673ffffffffffffffffffffffffffffffffffffffff168152602001908152602001600020600301600082825401925050819055505050565b600260009054906101000a900460ff1681565b6008602052806000526040600020600091509050806000018054600181600116156101000203166002900480601f01602080910402602001604051908101604052809291908181526020018280546001816001161561010002031660029004801561195f5780601f106119345761010080835404028352916020019161195f565b820191906000526020600020905b81548152906001019060200180831161194257829003601f168201915b505050505090806001018054600181600116156101000203166002900480601f0160208091040260200160405190810160405280929190818152602001828054600181600116156101000203166002900480156119fd5780601f106119d2576101008083540402835291602001916119fd565b820191906000526020600020905b8154815290600101906020018083116119e057829003601f168201915b5050505050905082565b60076020528060005260406000206000915090508060000160009054906101000a900473ffffffffffffffffffffffffffffffffffffffff16908060010160009054906101000a900473ffffffffffffffffffffffffffffffffffffffff1690806002018054600181600116156101000203166002900480601f016020809104026020016040519081016040528092919081815260200182805460018160011615610100020316600290048015611aff5780601f10611ad457610100808354040283529160200191611aff565b820191906000526020600020905b815481529060010190602001808311611ae257829003601f168201915b505050505090806003018054600181600116156101000203166002900480601f016020809104026020016040519081016040528092919081815260200182805460018160011615610100020316600290048015611b9d5780601f10611b7257610100808354040283529160200191611b9d565b820191906000526020600020905b815481529060010190602001808311611b8057829003601f168201915b505050505090806004018054600181600116156101000203166002900480601f016020809104026020016040519081016040528092919081815260200182805460018160011615610100020316600290048015611c3b5780601f10611c1057610100808354040283529160200191611c3b565b820191906000526020600020905b815481529060010190602001808311611c1e57829003601f168201915b5050505050908060050154908060060160009054906101000a900460ff16908060060160019054906101000a900460ff16908060060160029054906101000a900460ff16908060060160039054906101000a900460ff16908060060160049054906101000a900460ff16908060060160059054906101000a900460ff1690508c565b600460003373ffffffffffffffffffffffffffffffffffffffff1673ffffffffffffffffffffffffffffffffffffffff16815260200190815260200160002060040160009054906101000a900460ff161515611d1857600080fd5b600260009054906101000a900460ff16151515611d3457600080fd5b3373ffffffffffffffffffffffffffffffffffffffff166007600084815260200190815260200160002060000160009054906101000a900473ffffffffffffffffffffffffffffffffffffffff1673ffffffffffffffffffffffffffffffffffffffff16141515611da457600080fd5b6007600083815260200190815260200160002060060160029054906101000a900460ff161515611dd357600080fd5b60018112158015611de5575060038113155b1515611df057600080fd5b6007600083815260200190815260200160002060060160049054906101000a900460ff16151515611e2057600080fd5b60016007600084815260200190815260200160002060060160046101000a81548160ff021916908315150217905550600460006007600085815260200190815260200160002060010160009054906101000a900473ffffffffffffffffffffffffffffffffffffffff1673ffffffffffffffffffffffffffffffffffffffff1673ffffffffffffffffffffffffffffffffffffffff1681526020019081526020016000206002016000815480929190600101919050555080600460006007600086815260200190815260200160002060010160009054906101000a900473ffffffffffffffffffffffffffffffffffffffff1673ffffffffffffffffffffffffffffffffffffffff1673ffffffffffffffffffffffffffffffffffffffff168152602001908152602001600020600301600082825401925050819055505050565b600460003373ffffffffffffffffffffffffffffffffffffffff1673ffffffffffffffffffffffffffffffffffffffff16815260200190815260200160002060040160009054906101000a900460ff161515611fbc57600080fd5b600260009054906101000a900460ff16151515611fd857600080fd5b3373ffffffffffffffffffffffffffffffffffffffff166007600083815260200190815260200160002060010160009054906101000a900473ffffffffffffffffffffffffffffffffffffffff1673ffffffffffffffffffffffffffffffffffffffff1614151561204857600080fd5b6007600082815260200190815260200160002060060160019054906101000a900460ff16151561207757600080fd5b6007600082815260200190815260200160002060060160029054906101000a900460ff161515156120a757600080fd5b60016007600083815260200190815260200160002060060160026101000a81548160ff0219169083151502179055506007600082815260200190815260200160002060000160009054906101000a900473ffffffffffffffffffffffffffffffffffffffff1673ffffffffffffffffffffffffffffffffffffffff166108fc60076000848152602001908152602001600020600501549081150290604051600060405180830381858888f19350505050158015612168573d6000803e3d6000fd5b5050565b600460003373ffffffffffffffffffffffffffffffffffffffff1673ffffffffffffffffffffffffffffffffffffffff16815260200190815260200160002060040160009054906101000a900460ff1615156121c757600080fd5b600260009054906101000a900460ff161515156121e357600080fd5b6007600082815260200190815260200160002060060160009054906101000a900460ff1615151561221357600080fd5b6007600082815260200190815260200160002060060160059054906101000a900460ff1615151561224357600080fd5b34600760008381526020019081526020016000206005015414151561226757600080fd5b60016007600083815260200190815260200160002060060160006101000a81548160ff02191690831515021790555060016007600083815260200190815260200160002060060160056101000a81548160ff021916908315150217905550336007600083815260200190815260200160002060010160006101000a81548173ffffffffffffffffffffffffffffffffffffffff021916908373ffffffffffffffffffffffffffffffffffffffff160217905550600460003373ffffffffffffffffffffffffffffffffffffffff1673ffffffffffffffffffffffffffffffffffffffff16815260200190815260200160002060060160008154809291906001019190505550600660003373ffffffffffffffffffffffffffffffffffffffff1673ffffffffffffffffffffffffffffffffffffffff16815260200190815260200160002081908060018154018082558091505090600182039060005260206000200160009091929091909150555050565b6000809054906101000a900473ffffffffffffffffffffffffffffffffffffffff1673ffffffffffffffffffffffffffffffffffffffff163373ffffffffffffffffffffffffffffffffffffffff1614151561243357600080fd5b80600260006101000a81548160ff02191690831515021790555050565b600061245b33610ded565b15156124bd576001600460003373ffffffffffffffffffffffffffffffffffffffff1673ffffffffffffffffffffffffffffffffffffffff16815260200190815260200160002060040160006101000a81548160ff0219169083151502179055505b82600460003373ffffffffffffffffffffffffffffffffffffffff1673ffffffffffffffffffffffffffffffffffffffff16815260200190815260200160002060000190805190602001906125139291906125fc565b5081600460003373ffffffffffffffffffffffffffffffffffffffff1673ffffffffffffffffffffffffffffffffffffffff168152602001908152602001600020600101908051906020019061256a9291906125fc565b506001905092915050565b828054600181600116156101000203166002900490600052602060002090601f016020900481019282601f106125ae57805485556125eb565b828001600101855582156125eb57600052602060002091601f016020900482015b828111156125ea5782548255916001019190600101906125cf565b5b5090506125f8919061267c565b5090565b828054600181600116156101000203166002900490600052602060002090601f016020900481019282601f1061263d57805160ff191683800117855561266b565b8280016001018555821561266b579182015b8281111561266a57825182559160200191906001019061264f565b5b509050612678919061267c565b5090565b61269e91905b8082111561269a576000816000905550600101612682565b5090565b9056fea165627a7a72305820d322765f3a24ce83962e400c40743e953a2cc0800ca7d9d4c2bcdb93ae1762ad0029",
  "source": "pragma solidity ^0.5.0;\n\ncontract MarketApp {\n    address owner; // \n    uint256 public numItems; // \n    bool public stopped; // trueCircuit Breaker\n\n    // \n    constructor() public {\n        owner = msg.sender; // \n        numItems = 0;\n        stopped = false;\n    }\n\n    // \n    modifier onlyOwner {\n        require(msg.sender == owner);\n        _;\n    }\n\n    // Eth\n    modifier onlyUser {\n        require(accounts[msg.sender].resistered);\n        _;\n    }\n\n    // ===========================\n    // \n    // ===========================\n\n    // \n    struct account {\n        string name; //\n        string email; //Email\n        uint256 numTransactions; //\n        int256 reputations; //\n        bool resistered; //:false, :true\n        int256 numSell; //\n        int256 numBuy; //\n    }\n\n    address[] public users; // \n\n    mapping(address => account) accounts;\n\n    mapping(address => uint256[]) public sellItems;\n    mapping(address => uint256[]) public buyItems;\n\n    function registerAccount(string memory _name, string memory _email)\n        public\n        returns (bool)\n    {\n        //\n        if (!isUserExist(msg.sender)) {\n            accounts[msg.sender].resistered = true;\n        }\n        accounts[msg.sender].name = _name;\n        accounts[msg.sender].email = _email;\n        return true;\n    }\n\n    // \n    function viewAccount(address user)\n        public\n        view\n        returns (string memory, string memory)\n    {\n        string memory _name = accounts[user].name;\n        string memory _email = accounts[user].email;\n\n        return (_name, _email);\n    }\n\n    // \n    function viewAccount_Transaction(address user)\n        public\n        view\n        returns (\n            uint256,\n            int256,\n            int256,\n            int256\n        )\n    {\n        uint256 _numTransactions = accounts[user].numTransactions;\n        int256 _reputations = accounts[user].reputations;\n        int256 _numSell = accounts[user].numSell;\n        int256 _numBuy = accounts[user].numBuy;\n\n        return (_numTransactions, _reputations, _numSell, _numBuy);\n    }\n\n    function isUserExist(address user) public view returns (bool) {\n        for (uint256 i = 0; i < users.length; i++) {\n            if (users[i] == user) {\n                return true;\n            }\n        }\n        return false;\n    }\n\n    // \n    struct item {\n        address payable sellerAddr; // Eth\n        address payable buyerAddr; // Eth\n        string seller; // \n        string name; // \n        string description; // \n        uint256 price; // (wei)\n        bool payment; // false:, true:\n        bool shipment; // false:, true:\n        bool receivement; // false:, true:\n        bool sellerReputate; // , false:, true:\n        bool buyerReputate; // , false:, true:\n        bool stopSell; // false:, true:\n    }\n    mapping(uint256 => item) public items;\n\n    // \n    // solidity12item\n    // images\n    struct image {\n        string googleDocID; // googleid\n        string ipfsHash; // IPFS\n    }\n    mapping(uint256 => image) public images;\n\n    // \n    function sell(\n        string memory _name,\n        string memory _description,\n        uint256 _price,\n        string memory _googleDocID,\n        string memory _ipfsHash\n    ) public {\n        items[numItems].sellerAddr = msg.sender; // Eth\n        items[numItems].seller = accounts[msg.sender].name; // \n        items[numItems].name = _name; // \n        items[numItems].description = _description; // \n        items[numItems].price = _price; // \n        images[numItems].googleDocID = _googleDocID; // googleid\n        images[numItems].ipfsHash = _ipfsHash; // IPFS\n        accounts[msg.sender].numSell++; // \n        sellItems[msg.sender].push(numItems); // \n        numItems++; // \n    }\n\n    // \n    // \n    function buy(uint256 _numItems) public payable onlyUser isStopped {\n        require(!items[_numItems].payment); // \n        require(!items[_numItems].stopSell); // \n\n        require(items[_numItems].price == msg.value); // \n\n        items[_numItems].payment = true; // \n        items[_numItems].stopSell = true; // \n        items[_numItems].buyerAddr = msg.sender; // Eth\n        accounts[msg.sender].numBuy++; // \n        buyItems[msg.sender].push(_numItems); // \n    }\n\n    // \n    function ship(uint256 _numItems) public onlyUser isStopped {\n        require(items[_numItems].sellerAddr == msg.sender); // \n        require(items[_numItems].payment); // \n        require(!items[_numItems].shipment); // \n\n        items[_numItems].shipment = true; // \n    }\n\n    // \n    function receive(uint256 _numItems) public payable onlyUser isStopped {\n        require(items[_numItems].buyerAddr == msg.sender); // \n        require(items[_numItems].shipment); // \n        require(!items[_numItems].receivement); // \n\n        items[_numItems].receivement = true; // \n        // \n\n        items[_numItems].sellerAddr.transfer(items[_numItems].price);\n    }\n\n    // \n    // \n    function sellerEvaluate(uint256 _numItems, int256 _reputate)\n        public\n        onlyUser\n        isStopped\n    {\n        require(items[_numItems].buyerAddr == msg.sender); // \n        require(items[_numItems].receivement); // \n        require(_reputate >= 1 && _reputate <= 3); // 1 ~ 3\n        require(!items[_numItems].sellerReputate); // \n\n        items[_numItems].sellerReputate = true; // \n        accounts[items[_numItems].sellerAddr].numTransactions++; // \n        accounts[items[_numItems].sellerAddr].reputations += _reputate; // \n    }\n\n    // \n    function buyerEvaluate(uint256 _numItems, int256 _reputate)\n        public\n        onlyUser\n        isStopped\n    {\n        require(items[_numItems].sellerAddr == msg.sender); // \n        require(items[_numItems].receivement); // \n        require(_reputate >= 1 && _reputate <= 3); // 1 ~ 3\n        require(!items[_numItems].buyerReputate); // \n\n        items[_numItems].buyerReputate = true; // \n        accounts[items[_numItems].buyerAddr].numTransactions++; // \n        accounts[items[_numItems].buyerAddr].reputations += _reputate; // \n    }\n\n    // ================\n    // \n    // ================\n\n    // Circuit Breaker\n    modifier isStopped {\n        require(!stopped);\n        _;\n    }\n\n    // Circuit Breaker\n    function toggleCircuit(bool _stopped) public onlyOwner {\n        stopped = _stopped;\n    }\n\n    // \n    // \n    // function kill() public onlyOwner {\n    //     selfdestruct(owner);\n    // }\n}\n",
  "sourcePath": "/Users/sho11hei12/react-dapps/MarketApp/dapps-deploy/contracts/Market.sol",
  "compiler": {
    "name": "solc",
    "version": "0.5.2+commit.1df8f40c.Emscripten.clang"
  },
  "schemaVersion": "3.2.3",
  "updatedAt": "2020-10-29T08:04:33.536Z",
  "networkType": "ethereum",
  "devdoc": {
    "methods": {}
  },
  "userdoc": {
    "methods": {}
  }
}